{
	"solution/UniDirectionalPayment.sol": {
		"UniDirectionalPayment": {
			"abi": [
				{
					"inputs": [
						{
							"internalType": "address payable",
							"name": "_sender",
							"type": "address"
						},
						{
							"internalType": "address payable",
							"name": "_receiver",
							"type": "address"
						}
					],
					"stateMutability": "payable",
					"type": "constructor"
				},
				{
					"anonymous": false,
					"inputs": [
						{
							"indexed": false,
							"internalType": "uint256",
							"name": "balance",
							"type": "uint256"
						}
					],
					"name": "FundsReceived",
					"type": "event"
				},
				{
					"inputs": [],
					"name": "balance",
					"outputs": [
						{
							"internalType": "uint256",
							"name": "",
							"type": "uint256"
						}
					],
					"stateMutability": "view",
					"type": "function"
				},
				{
					"inputs": [],
					"name": "confirmReceived",
					"outputs": [],
					"stateMutability": "nonpayable",
					"type": "function"
				},
				{
					"inputs": [],
					"name": "receiver",
					"outputs": [
						{
							"internalType": "address payable",
							"name": "",
							"type": "address"
						}
					],
					"stateMutability": "view",
					"type": "function"
				},
				{
					"inputs": [
						{
							"internalType": "uint256",
							"name": "amount",
							"type": "uint256"
						}
					],
					"name": "send",
					"outputs": [],
					"stateMutability": "payable",
					"type": "function"
				},
				{
					"inputs": [],
					"name": "sender",
					"outputs": [
						{
							"internalType": "address payable",
							"name": "",
							"type": "address"
						}
					],
					"stateMutability": "view",
					"type": "function"
				}
			],
			"devdoc": {
				"kind": "dev",
				"methods": {},
				"version": 1
			},
			"evm": {
				"assembly": "    /* \"solution/UniDirectionalPayment.sol\":57:1752  contract UniDirectionalPayment {... */\n  mstore(0x40, 0x80)\n    /* \"solution/UniDirectionalPayment.sol\":318:480  constructor(address payable _sender, address payable _receiver)... */\n  mload(0x40)\n  sub(codesize, bytecodeSize)\n  dup1\n  bytecodeSize\n  dup4\n  codecopy\n  dup2\n  dup2\n  add\n  0x40\n  mstore\n  dup2\n  add\n  swap1\n  tag_1\n  swap2\n  swap1\n  tag_2\n  jump\t// in\ntag_1:\n    /* \"solution/UniDirectionalPayment.sol\":436:443  _sender */\n  dup2\n    /* \"solution/UniDirectionalPayment.sol\":427:433  sender */\n  0x00\n  dup1\n    /* \"solution/UniDirectionalPayment.sol\":427:443  sender = _sender */\n  0x0100\n  exp\n  dup2\n  sload\n  dup2\n  0xffffffffffffffffffffffffffffffffffffffff\n  mul\n  not\n  and\n  swap1\n  dup4\n  0xffffffffffffffffffffffffffffffffffffffff\n  and\n  mul\n  or\n  swap1\n  sstore\n  pop\n    /* \"solution/UniDirectionalPayment.sol\":464:473  _receiver */\n  dup1\n    /* \"solution/UniDirectionalPayment.sol\":453:461  receiver */\n  0x01\n  0x00\n    /* \"solution/UniDirectionalPayment.sol\":453:473  receiver = _receiver */\n  0x0100\n  exp\n  dup2\n  sload\n  dup2\n  0xffffffffffffffffffffffffffffffffffffffff\n  mul\n  not\n  and\n  swap1\n  dup4\n  0xffffffffffffffffffffffffffffffffffffffff\n  and\n  mul\n  or\n  swap1\n  sstore\n  pop\n    /* \"solution/UniDirectionalPayment.sol\":318:480  constructor(address payable _sender, address payable _receiver)... */\n  pop\n  pop\n    /* \"solution/UniDirectionalPayment.sol\":57:1752  contract UniDirectionalPayment {... */\n  jump(tag_5)\n    /* \"#utility.yul\":7:166   */\ntag_7:\n    /* \"#utility.yul\":72:77   */\n  0x00\n    /* \"#utility.yul\":103:109   */\n  dup2\n    /* \"#utility.yul\":97:110   */\n  mload\n    /* \"#utility.yul\":88:110   */\n  swap1\n  pop\n    /* \"#utility.yul\":119:160   */\n  tag_9\n    /* \"#utility.yul\":154:159   */\n  dup2\n    /* \"#utility.yul\":119:160   */\n  tag_10\n  jump\t// in\ntag_9:\n    /* \"#utility.yul\":7:166   */\n  swap3\n  swap2\n  pop\n  pop\n  jump\t// out\n    /* \"#utility.yul\":172:711   */\ntag_2:\n    /* \"#utility.yul\":267:273   */\n  0x00\n    /* \"#utility.yul\":275:281   */\n  dup1\n    /* \"#utility.yul\":324:326   */\n  0x40\n    /* \"#utility.yul\":312:321   */\n  dup4\n    /* \"#utility.yul\":303:310   */\n  dup6\n    /* \"#utility.yul\":299:322   */\n  sub\n    /* \"#utility.yul\":295:327   */\n  slt\n    /* \"#utility.yul\":292:411   */\n  iszero\n  tag_12\n  jumpi\n    /* \"#utility.yul\":330:409   */\n  tag_13\n  tag_14\n  jump\t// in\ntag_13:\n    /* \"#utility.yul\":292:411   */\ntag_12:\n    /* \"#utility.yul\":450:451   */\n  0x00\n    /* \"#utility.yul\":475:547   */\n  tag_15\n    /* \"#utility.yul\":539:546   */\n  dup6\n    /* \"#utility.yul\":530:536   */\n  dup3\n    /* \"#utility.yul\":519:528   */\n  dup7\n    /* \"#utility.yul\":515:537   */\n  add\n    /* \"#utility.yul\":475:547   */\n  tag_7\n  jump\t// in\ntag_15:\n    /* \"#utility.yul\":465:547   */\n  swap3\n  pop\n    /* \"#utility.yul\":421:557   */\n  pop\n    /* \"#utility.yul\":596:598   */\n  0x20\n    /* \"#utility.yul\":622:694   */\n  tag_16\n    /* \"#utility.yul\":686:693   */\n  dup6\n    /* \"#utility.yul\":677:683   */\n  dup3\n    /* \"#utility.yul\":666:675   */\n  dup7\n    /* \"#utility.yul\":662:684   */\n  add\n    /* \"#utility.yul\":622:694   */\n  tag_7\n  jump\t// in\ntag_16:\n    /* \"#utility.yul\":612:694   */\n  swap2\n  pop\n    /* \"#utility.yul\":567:704   */\n  pop\n    /* \"#utility.yul\":172:711   */\n  swap3\n  pop\n  swap3\n  swap1\n  pop\n  jump\t// out\n    /* \"#utility.yul\":798:902   */\ntag_19:\n    /* \"#utility.yul\":843:850   */\n  0x00\n    /* \"#utility.yul\":872:896   */\n  tag_21\n    /* \"#utility.yul\":890:895   */\n  dup3\n    /* \"#utility.yul\":872:896   */\n  tag_22\n  jump\t// in\ntag_21:\n    /* \"#utility.yul\":861:896   */\n  swap1\n  pop\n    /* \"#utility.yul\":798:902   */\n  swap2\n  swap1\n  pop\n  jump\t// out\n    /* \"#utility.yul\":908:1034   */\ntag_22:\n    /* \"#utility.yul\":945:952   */\n  0x00\n    /* \"#utility.yul\":985:1027   */\n  0xffffffffffffffffffffffffffffffffffffffff\n    /* \"#utility.yul\":978:983   */\n  dup3\n    /* \"#utility.yul\":974:1028   */\n  and\n    /* \"#utility.yul\":963:1028   */\n  swap1\n  pop\n    /* \"#utility.yul\":908:1034   */\n  swap2\n  swap1\n  pop\n  jump\t// out\n    /* \"#utility.yul\":1163:1280   */\ntag_14:\n    /* \"#utility.yul\":1272:1273   */\n  0x00\n    /* \"#utility.yul\":1269:1270   */\n  dup1\n    /* \"#utility.yul\":1262:1274   */\n  revert\n    /* \"#utility.yul\":1286:1424   */\ntag_10:\n    /* \"#utility.yul\":1367:1399   */\n  tag_28\n    /* \"#utility.yul\":1393:1398   */\n  dup2\n    /* \"#utility.yul\":1367:1399   */\n  tag_19\n  jump\t// in\ntag_28:\n    /* \"#utility.yul\":1360:1365   */\n  dup2\n    /* \"#utility.yul\":1357:1400   */\n  eq\n    /* \"#utility.yul\":1347:1418   */\n  tag_29\n  jumpi\n    /* \"#utility.yul\":1414:1415   */\n  0x00\n    /* \"#utility.yul\":1411:1412   */\n  dup1\n    /* \"#utility.yul\":1404:1416   */\n  revert\n    /* \"#utility.yul\":1347:1418   */\ntag_29:\n    /* \"#utility.yul\":1286:1424   */\n  pop\n  jump\t// out\n    /* \"solution/UniDirectionalPayment.sol\":57:1752  contract UniDirectionalPayment {... */\ntag_5:\n  dataSize(sub_0)\n  dup1\n  dataOffset(sub_0)\n  0x00\n  codecopy\n  0x00\n  return\nstop\n\nsub_0: assembly {\n        /* \"solution/UniDirectionalPayment.sol\":57:1752  contract UniDirectionalPayment {... */\n      mstore(0x40, 0x80)\n      jumpi(tag_1, lt(calldatasize, 0x04))\n      shr(0xe0, calldataload(0x00))\n      dup1\n      0x67e404ce\n      eq\n      tag_2\n      jumpi\n      dup1\n      0x73fac6f0\n      eq\n      tag_3\n      jumpi\n      dup1\n      0xa52c101e\n      eq\n      tag_4\n      jumpi\n      dup1\n      0xb69ef8a8\n      eq\n      tag_5\n      jumpi\n      dup1\n      0xf7260d3e\n      eq\n      tag_6\n      jumpi\n    tag_1:\n      0x00\n      dup1\n      revert\n        /* \"solution/UniDirectionalPayment.sol\":94:123  address payable public sender */\n    tag_2:\n      callvalue\n      dup1\n      iszero\n      tag_7\n      jumpi\n      0x00\n      dup1\n      revert\n    tag_7:\n      pop\n      tag_8\n      tag_9\n      jump\t// in\n    tag_8:\n      mload(0x40)\n      tag_10\n      swap2\n      swap1\n      tag_11\n      jump\t// in\n    tag_10:\n      mload(0x40)\n      dup1\n      swap2\n      sub\n      swap1\n      return\n        /* \"solution/UniDirectionalPayment.sol\":1289:1750  function confirmReceived() public {... */\n    tag_3:\n      callvalue\n      dup1\n      iszero\n      tag_12\n      jumpi\n      0x00\n      dup1\n      revert\n    tag_12:\n      pop\n      tag_13\n      tag_14\n      jump\t// in\n    tag_13:\n      stop\n        /* \"solution/UniDirectionalPayment.sol\":520:1247  function send(uint256 amount) public payable {... */\n    tag_4:\n      tag_15\n      0x04\n      dup1\n      calldatasize\n      sub\n      dup2\n      add\n      swap1\n      tag_16\n      swap2\n      swap1\n      tag_17\n      jump\t// in\n    tag_16:\n      tag_18\n      jump\t// in\n    tag_15:\n      stop\n        /* \"solution/UniDirectionalPayment.sol\":200:222  uint256 public balance */\n    tag_5:\n      callvalue\n      dup1\n      iszero\n      tag_19\n      jumpi\n      0x00\n      dup1\n      revert\n    tag_19:\n      pop\n      tag_20\n      tag_21\n      jump\t// in\n    tag_20:\n      mload(0x40)\n      tag_22\n      swap2\n      swap1\n      tag_23\n      jump\t// in\n    tag_22:\n      mload(0x40)\n      dup1\n      swap2\n      sub\n      swap1\n      return\n        /* \"solution/UniDirectionalPayment.sol\":129:160  address payable public receiver */\n    tag_6:\n      callvalue\n      dup1\n      iszero\n      tag_24\n      jumpi\n      0x00\n      dup1\n      revert\n    tag_24:\n      pop\n      tag_25\n      tag_26\n      jump\t// in\n    tag_25:\n      mload(0x40)\n      tag_27\n      swap2\n      swap1\n      tag_11\n      jump\t// in\n    tag_27:\n      mload(0x40)\n      dup1\n      swap2\n      sub\n      swap1\n      return\n        /* \"solution/UniDirectionalPayment.sol\":94:123  address payable public sender */\n    tag_9:\n      0x00\n      dup1\n      sload\n      swap1\n      0x0100\n      exp\n      swap1\n      div\n      0xffffffffffffffffffffffffffffffffffffffff\n      and\n      dup2\n      jump\t// out\n        /* \"solution/UniDirectionalPayment.sol\":1289:1750  function confirmReceived() public {... */\n    tag_14:\n        /* \"solution/UniDirectionalPayment.sol\":1405:1413  receiver */\n      0x01\n      0x00\n      swap1\n      sload\n      swap1\n      0x0100\n      exp\n      swap1\n      div\n      0xffffffffffffffffffffffffffffffffffffffff\n      and\n        /* \"solution/UniDirectionalPayment.sol\":1391:1413  msg.sender == receiver */\n      0xffffffffffffffffffffffffffffffffffffffff\n      and\n        /* \"solution/UniDirectionalPayment.sol\":1391:1401  msg.sender */\n      caller\n        /* \"solution/UniDirectionalPayment.sol\":1391:1413  msg.sender == receiver */\n      0xffffffffffffffffffffffffffffffffffffffff\n      and\n      eq\n        /* \"solution/UniDirectionalPayment.sol\":1383:1445  require(msg.sender == receiver, \"Sender must be the receiver\") */\n      tag_29\n      jumpi\n      mload(0x40)\n      0x08c379a000000000000000000000000000000000000000000000000000000000\n      dup2\n      mstore\n      0x04\n      add\n      tag_30\n      swap1\n      tag_31\n      jump\t// in\n    tag_30:\n      mload(0x40)\n      dup1\n      swap2\n      sub\n      swap1\n      revert\n    tag_29:\n        /* \"solution/UniDirectionalPayment.sol\":1533:1534  0 */\n      0x00\n        /* \"solution/UniDirectionalPayment.sol\":1523:1530  balance */\n      sload(0x02)\n        /* \"solution/UniDirectionalPayment.sol\":1523:1534  balance > 0 */\n      gt\n        /* \"solution/UniDirectionalPayment.sol\":1515:1580  require(balance > 0, \"Contract does not have a positive balance\") */\n      tag_32\n      jumpi\n      mload(0x40)\n      0x08c379a000000000000000000000000000000000000000000000000000000000\n      dup2\n      mstore\n      0x04\n      add\n      tag_33\n      swap1\n      tag_34\n      jump\t// in\n    tag_33:\n      mload(0x40)\n      dup1\n      swap2\n      sub\n      swap1\n      revert\n    tag_32:\n        /* \"solution/UniDirectionalPayment.sol\":1654:1676  FundsReceived(balance) */\n      0xbcdc7071c1beb6dcf2744621e0b29a2f2432ee20812d9ca5e3d5e8f9308d93a3\n        /* \"solution/UniDirectionalPayment.sol\":1668:1675  balance */\n      sload(0x02)\n        /* \"solution/UniDirectionalPayment.sol\":1654:1676  FundsReceived(balance) */\n      mload(0x40)\n      tag_35\n      swap2\n      swap1\n      tag_23\n      jump\t// in\n    tag_35:\n      mload(0x40)\n      dup1\n      swap2\n      sub\n      swap1\n      log1\n        /* \"solution/UniDirectionalPayment.sol\":1742:1743  0 */\n      0x00\n        /* \"solution/UniDirectionalPayment.sol\":1732:1739  balance */\n      0x02\n        /* \"solution/UniDirectionalPayment.sol\":1732:1743  balance = 0 */\n      dup2\n      swap1\n      sstore\n      pop\n        /* \"solution/UniDirectionalPayment.sol\":1289:1750  function confirmReceived() public {... */\n      jump\t// out\n        /* \"solution/UniDirectionalPayment.sol\":520:1247  function send(uint256 amount) public payable {... */\n    tag_18:\n        /* \"solution/UniDirectionalPayment.sol\":645:651  sender */\n      0x00\n      dup1\n      sload\n      swap1\n      0x0100\n      exp\n      swap1\n      div\n      0xffffffffffffffffffffffffffffffffffffffff\n      and\n        /* \"solution/UniDirectionalPayment.sol\":631:651  msg.sender == sender */\n      0xffffffffffffffffffffffffffffffffffffffff\n      and\n        /* \"solution/UniDirectionalPayment.sol\":631:641  msg.sender */\n      caller\n        /* \"solution/UniDirectionalPayment.sol\":631:651  msg.sender == sender */\n      0xffffffffffffffffffffffffffffffffffffffff\n      and\n      eq\n        /* \"solution/UniDirectionalPayment.sol\":623:681  require(msg.sender == sender, \"Sender must be the caller\") */\n      tag_37\n      jumpi\n      mload(0x40)\n      0x08c379a000000000000000000000000000000000000000000000000000000000\n      dup2\n      mstore\n      0x04\n      add\n      tag_38\n      swap1\n      tag_39\n      jump\t// in\n    tag_38:\n      mload(0x40)\n      dup1\n      swap2\n      sub\n      swap1\n      revert\n    tag_37:\n        /* \"solution/UniDirectionalPayment.sol\":811:817  amount */\n      dup1\n        /* \"solution/UniDirectionalPayment.sol\":786:807  address(this).balance */\n      selfbalance\n        /* \"solution/UniDirectionalPayment.sol\":786:817  address(this).balance >= amount */\n      lt\n      iszero\n        /* \"solution/UniDirectionalPayment.sol\":765:880  require(... */\n      tag_40\n      jumpi\n      mload(0x40)\n      0x08c379a000000000000000000000000000000000000000000000000000000000\n      dup2\n      mstore\n      0x04\n      add\n      tag_41\n      swap1\n      tag_42\n      jump\t// in\n    tag_41:\n      mload(0x40)\n      dup1\n      swap2\n      sub\n      swap1\n      revert\n    tag_40:\n        /* \"solution/UniDirectionalPayment.sol\":983:989  amount */\n      dup1\n        /* \"solution/UniDirectionalPayment.sol\":972:979  balance */\n      0x02\n      0x00\n        /* \"solution/UniDirectionalPayment.sol\":972:989  balance += amount */\n      dup3\n      dup3\n      sload\n      tag_43\n      swap2\n      swap1\n      tag_44\n      jump\t// in\n    tag_43:\n      swap3\n      pop\n      pop\n      dup2\n      swap1\n      sstore\n      pop\n        /* \"solution/UniDirectionalPayment.sol\":1067:1079  bool success */\n      0x00\n        /* \"solution/UniDirectionalPayment.sol\":1081:1098  bytes memory data */\n      dup1\n        /* \"solution/UniDirectionalPayment.sol\":1102:1110  receiver */\n      0x01\n      0x00\n      swap1\n      sload\n      swap1\n      0x0100\n      exp\n      swap1\n      div\n      0xffffffffffffffffffffffffffffffffffffffff\n      and\n        /* \"solution/UniDirectionalPayment.sol\":1102:1115  receiver.call */\n      0xffffffffffffffffffffffffffffffffffffffff\n      and\n        /* \"solution/UniDirectionalPayment.sol\":1123:1129  amount */\n      dup4\n        /* \"solution/UniDirectionalPayment.sol\":1102:1134  receiver.call{value: amount}(\"\") */\n      mload(0x40)\n      tag_45\n      swap1\n      tag_46\n      jump\t// in\n    tag_45:\n      0x00\n      mload(0x40)\n      dup1\n      dup4\n      sub\n      dup2\n      dup6\n      dup8\n      gas\n      call\n      swap3\n      pop\n      pop\n      pop\n      returndatasize\n      dup1\n      0x00\n      dup2\n      eq\n      tag_49\n      jumpi\n      mload(0x40)\n      swap2\n      pop\n      and(add(returndatasize, 0x3f), not(0x1f))\n      dup3\n      add\n      0x40\n      mstore\n      returndatasize\n      dup3\n      mstore\n      returndatasize\n      0x00\n      0x20\n      dup5\n      add\n      returndatacopy\n      jump(tag_48)\n    tag_49:\n      0x60\n      swap2\n      pop\n    tag_48:\n      pop\n        /* \"solution/UniDirectionalPayment.sol\":1066:1134  (bool success, bytes memory data) = receiver.call{value: amount}(\"\") */\n      swap2\n      pop\n      swap2\n      pop\n        /* \"solution/UniDirectionalPayment.sol\":1205:1212  success */\n      dup2\n        /* \"solution/UniDirectionalPayment.sol\":1197:1240  require(success, \"Call to receiver failed\") */\n      tag_50\n      jumpi\n      mload(0x40)\n      0x08c379a000000000000000000000000000000000000000000000000000000000\n      dup2\n      mstore\n      0x04\n      add\n      tag_51\n      swap1\n      tag_52\n      jump\t// in\n    tag_51:\n      mload(0x40)\n      dup1\n      swap2\n      sub\n      swap1\n      revert\n    tag_50:\n        /* \"solution/UniDirectionalPayment.sol\":565:1247  {... */\n      pop\n      pop\n        /* \"solution/UniDirectionalPayment.sol\":520:1247  function send(uint256 amount) public payable {... */\n      pop\n      jump\t// out\n        /* \"solution/UniDirectionalPayment.sol\":200:222  uint256 public balance */\n    tag_21:\n      sload(0x02)\n      dup2\n      jump\t// out\n        /* \"solution/UniDirectionalPayment.sol\":129:160  address payable public receiver */\n    tag_26:\n      0x01\n      0x00\n      swap1\n      sload\n      swap1\n      0x0100\n      exp\n      swap1\n      div\n      0xffffffffffffffffffffffffffffffffffffffff\n      and\n      dup2\n      jump\t// out\n        /* \"#utility.yul\":7:146   */\n    tag_54:\n        /* \"#utility.yul\":53:58   */\n      0x00\n        /* \"#utility.yul\":91:97   */\n      dup2\n        /* \"#utility.yul\":78:98   */\n      calldataload\n        /* \"#utility.yul\":69:98   */\n      swap1\n      pop\n        /* \"#utility.yul\":107:140   */\n      tag_56\n        /* \"#utility.yul\":134:139   */\n      dup2\n        /* \"#utility.yul\":107:140   */\n      tag_57\n      jump\t// in\n    tag_56:\n        /* \"#utility.yul\":7:146   */\n      swap3\n      swap2\n      pop\n      pop\n      jump\t// out\n        /* \"#utility.yul\":152:481   */\n    tag_17:\n        /* \"#utility.yul\":211:217   */\n      0x00\n        /* \"#utility.yul\":260:262   */\n      0x20\n        /* \"#utility.yul\":248:257   */\n      dup3\n        /* \"#utility.yul\":239:246   */\n      dup5\n        /* \"#utility.yul\":235:258   */\n      sub\n        /* \"#utility.yul\":231:263   */\n      slt\n        /* \"#utility.yul\":228:347   */\n      iszero\n      tag_59\n      jumpi\n        /* \"#utility.yul\":266:345   */\n      tag_60\n      tag_61\n      jump\t// in\n    tag_60:\n        /* \"#utility.yul\":228:347   */\n    tag_59:\n        /* \"#utility.yul\":386:387   */\n      0x00\n        /* \"#utility.yul\":411:464   */\n      tag_62\n        /* \"#utility.yul\":456:463   */\n      dup5\n        /* \"#utility.yul\":447:453   */\n      dup3\n        /* \"#utility.yul\":436:445   */\n      dup6\n        /* \"#utility.yul\":432:454   */\n      add\n        /* \"#utility.yul\":411:464   */\n      tag_54\n      jump\t// in\n    tag_62:\n        /* \"#utility.yul\":401:464   */\n      swap2\n      pop\n        /* \"#utility.yul\":357:474   */\n      pop\n        /* \"#utility.yul\":152:481   */\n      swap3\n      swap2\n      pop\n      pop\n      jump\t// out\n        /* \"#utility.yul\":487:629   */\n    tag_63:\n        /* \"#utility.yul\":590:622   */\n      tag_65\n        /* \"#utility.yul\":616:621   */\n      dup2\n        /* \"#utility.yul\":590:622   */\n      tag_66\n      jump\t// in\n    tag_65:\n        /* \"#utility.yul\":585:588   */\n      dup3\n        /* \"#utility.yul\":578:623   */\n      mstore\n        /* \"#utility.yul\":487:629   */\n      pop\n      pop\n      jump\t// out\n        /* \"#utility.yul\":635:1001   */\n    tag_67:\n        /* \"#utility.yul\":777:780   */\n      0x00\n        /* \"#utility.yul\":798:865   */\n      tag_69\n        /* \"#utility.yul\":862:864   */\n      0x19\n        /* \"#utility.yul\":857:860   */\n      dup4\n        /* \"#utility.yul\":798:865   */\n      tag_70\n      jump\t// in\n    tag_69:\n        /* \"#utility.yul\":791:865   */\n      swap2\n      pop\n        /* \"#utility.yul\":874:967   */\n      tag_71\n        /* \"#utility.yul\":963:966   */\n      dup3\n        /* \"#utility.yul\":874:967   */\n      tag_72\n      jump\t// in\n    tag_71:\n        /* \"#utility.yul\":992:994   */\n      0x20\n        /* \"#utility.yul\":987:990   */\n      dup3\n        /* \"#utility.yul\":983:995   */\n      add\n        /* \"#utility.yul\":976:995   */\n      swap1\n      pop\n        /* \"#utility.yul\":635:1001   */\n      swap2\n      swap1\n      pop\n      jump\t// out\n        /* \"#utility.yul\":1007:1373   */\n    tag_73:\n        /* \"#utility.yul\":1149:1152   */\n      0x00\n        /* \"#utility.yul\":1170:1237   */\n      tag_75\n        /* \"#utility.yul\":1234:1236   */\n      0x25\n        /* \"#utility.yul\":1229:1232   */\n      dup4\n        /* \"#utility.yul\":1170:1237   */\n      tag_70\n      jump\t// in\n    tag_75:\n        /* \"#utility.yul\":1163:1237   */\n      swap2\n      pop\n        /* \"#utility.yul\":1246:1339   */\n      tag_76\n        /* \"#utility.yul\":1335:1338   */\n      dup3\n        /* \"#utility.yul\":1246:1339   */\n      tag_77\n      jump\t// in\n    tag_76:\n        /* \"#utility.yul\":1364:1366   */\n      0x40\n        /* \"#utility.yul\":1359:1362   */\n      dup3\n        /* \"#utility.yul\":1355:1367   */\n      add\n        /* \"#utility.yul\":1348:1367   */\n      swap1\n      pop\n        /* \"#utility.yul\":1007:1373   */\n      swap2\n      swap1\n      pop\n      jump\t// out\n        /* \"#utility.yul\":1379:1745   */\n    tag_78:\n        /* \"#utility.yul\":1521:1524   */\n      0x00\n        /* \"#utility.yul\":1542:1609   */\n      tag_80\n        /* \"#utility.yul\":1606:1608   */\n      0x1b\n        /* \"#utility.yul\":1601:1604   */\n      dup4\n        /* \"#utility.yul\":1542:1609   */\n      tag_70\n      jump\t// in\n    tag_80:\n        /* \"#utility.yul\":1535:1609   */\n      swap2\n      pop\n        /* \"#utility.yul\":1618:1711   */\n      tag_81\n        /* \"#utility.yul\":1707:1710   */\n      dup3\n        /* \"#utility.yul\":1618:1711   */\n      tag_82\n      jump\t// in\n    tag_81:\n        /* \"#utility.yul\":1736:1738   */\n      0x20\n        /* \"#utility.yul\":1731:1734   */\n      dup3\n        /* \"#utility.yul\":1727:1739   */\n      add\n        /* \"#utility.yul\":1720:1739   */\n      swap1\n      pop\n        /* \"#utility.yul\":1379:1745   */\n      swap2\n      swap1\n      pop\n      jump\t// out\n        /* \"#utility.yul\":1751:2117   */\n    tag_83:\n        /* \"#utility.yul\":1893:1896   */\n      0x00\n        /* \"#utility.yul\":1914:1981   */\n      tag_85\n        /* \"#utility.yul\":1978:1980   */\n      0x17\n        /* \"#utility.yul\":1973:1976   */\n      dup4\n        /* \"#utility.yul\":1914:1981   */\n      tag_70\n      jump\t// in\n    tag_85:\n        /* \"#utility.yul\":1907:1981   */\n      swap2\n      pop\n        /* \"#utility.yul\":1990:2083   */\n      tag_86\n        /* \"#utility.yul\":2079:2082   */\n      dup3\n        /* \"#utility.yul\":1990:2083   */\n      tag_87\n      jump\t// in\n    tag_86:\n        /* \"#utility.yul\":2108:2110   */\n      0x20\n        /* \"#utility.yul\":2103:2106   */\n      dup3\n        /* \"#utility.yul\":2099:2111   */\n      add\n        /* \"#utility.yul\":2092:2111   */\n      swap1\n      pop\n        /* \"#utility.yul\":1751:2117   */\n      swap2\n      swap1\n      pop\n      jump\t// out\n        /* \"#utility.yul\":2123:2521   */\n    tag_88:\n        /* \"#utility.yul\":2282:2285   */\n      0x00\n        /* \"#utility.yul\":2303:2386   */\n      tag_90\n        /* \"#utility.yul\":2384:2385   */\n      0x00\n        /* \"#utility.yul\":2379:2382   */\n      dup4\n        /* \"#utility.yul\":2303:2386   */\n      tag_91\n      jump\t// in\n    tag_90:\n        /* \"#utility.yul\":2296:2386   */\n      swap2\n      pop\n        /* \"#utility.yul\":2395:2488   */\n      tag_92\n        /* \"#utility.yul\":2484:2487   */\n      dup3\n        /* \"#utility.yul\":2395:2488   */\n      tag_93\n      jump\t// in\n    tag_92:\n        /* \"#utility.yul\":2513:2514   */\n      0x00\n        /* \"#utility.yul\":2508:2511   */\n      dup3\n        /* \"#utility.yul\":2504:2515   */\n      add\n        /* \"#utility.yul\":2497:2515   */\n      swap1\n      pop\n        /* \"#utility.yul\":2123:2521   */\n      swap2\n      swap1\n      pop\n      jump\t// out\n        /* \"#utility.yul\":2527:2893   */\n    tag_94:\n        /* \"#utility.yul\":2669:2672   */\n      0x00\n        /* \"#utility.yul\":2690:2757   */\n      tag_96\n        /* \"#utility.yul\":2754:2756   */\n      0x29\n        /* \"#utility.yul\":2749:2752   */\n      dup4\n        /* \"#utility.yul\":2690:2757   */\n      tag_70\n      jump\t// in\n    tag_96:\n        /* \"#utility.yul\":2683:2757   */\n      swap2\n      pop\n        /* \"#utility.yul\":2766:2859   */\n      tag_97\n        /* \"#utility.yul\":2855:2858   */\n      dup3\n        /* \"#utility.yul\":2766:2859   */\n      tag_98\n      jump\t// in\n    tag_97:\n        /* \"#utility.yul\":2884:2886   */\n      0x40\n        /* \"#utility.yul\":2879:2882   */\n      dup3\n        /* \"#utility.yul\":2875:2887   */\n      add\n        /* \"#utility.yul\":2868:2887   */\n      swap1\n      pop\n        /* \"#utility.yul\":2527:2893   */\n      swap2\n      swap1\n      pop\n      jump\t// out\n        /* \"#utility.yul\":2899:3017   */\n    tag_99:\n        /* \"#utility.yul\":2986:3010   */\n      tag_101\n        /* \"#utility.yul\":3004:3009   */\n      dup2\n        /* \"#utility.yul\":2986:3010   */\n      tag_102\n      jump\t// in\n    tag_101:\n        /* \"#utility.yul\":2981:2984   */\n      dup3\n        /* \"#utility.yul\":2974:3011   */\n      mstore\n        /* \"#utility.yul\":2899:3017   */\n      pop\n      pop\n      jump\t// out\n        /* \"#utility.yul\":3023:3402   */\n    tag_46:\n        /* \"#utility.yul\":3207:3210   */\n      0x00\n        /* \"#utility.yul\":3229:3376   */\n      tag_104\n        /* \"#utility.yul\":3372:3375   */\n      dup3\n        /* \"#utility.yul\":3229:3376   */\n      tag_88\n      jump\t// in\n    tag_104:\n        /* \"#utility.yul\":3222:3376   */\n      swap2\n      pop\n        /* \"#utility.yul\":3393:3396   */\n      dup2\n        /* \"#utility.yul\":3386:3396   */\n      swap1\n      pop\n        /* \"#utility.yul\":3023:3402   */\n      swap2\n      swap1\n      pop\n      jump\t// out\n        /* \"#utility.yul\":3408:3662   */\n    tag_11:\n        /* \"#utility.yul\":3517:3521   */\n      0x00\n        /* \"#utility.yul\":3555:3557   */\n      0x20\n        /* \"#utility.yul\":3544:3553   */\n      dup3\n        /* \"#utility.yul\":3540:3558   */\n      add\n        /* \"#utility.yul\":3532:3558   */\n      swap1\n      pop\n        /* \"#utility.yul\":3568:3655   */\n      tag_106\n        /* \"#utility.yul\":3652:3653   */\n      0x00\n        /* \"#utility.yul\":3641:3650   */\n      dup4\n        /* \"#utility.yul\":3637:3654   */\n      add\n        /* \"#utility.yul\":3628:3634   */\n      dup5\n        /* \"#utility.yul\":3568:3655   */\n      tag_63\n      jump\t// in\n    tag_106:\n        /* \"#utility.yul\":3408:3662   */\n      swap3\n      swap2\n      pop\n      pop\n      jump\t// out\n        /* \"#utility.yul\":3668:4087   */\n    tag_39:\n        /* \"#utility.yul\":3834:3838   */\n      0x00\n        /* \"#utility.yul\":3872:3874   */\n      0x20\n        /* \"#utility.yul\":3861:3870   */\n      dup3\n        /* \"#utility.yul\":3857:3875   */\n      add\n        /* \"#utility.yul\":3849:3875   */\n      swap1\n      pop\n        /* \"#utility.yul\":3921:3930   */\n      dup2\n        /* \"#utility.yul\":3915:3919   */\n      dup2\n        /* \"#utility.yul\":3911:3931   */\n      sub\n        /* \"#utility.yul\":3907:3908   */\n      0x00\n        /* \"#utility.yul\":3896:3905   */\n      dup4\n        /* \"#utility.yul\":3892:3909   */\n      add\n        /* \"#utility.yul\":3885:3932   */\n      mstore\n        /* \"#utility.yul\":3949:4080   */\n      tag_108\n        /* \"#utility.yul\":4075:4079   */\n      dup2\n        /* \"#utility.yul\":3949:4080   */\n      tag_67\n      jump\t// in\n    tag_108:\n        /* \"#utility.yul\":3941:4080   */\n      swap1\n      pop\n        /* \"#utility.yul\":3668:4087   */\n      swap2\n      swap1\n      pop\n      jump\t// out\n        /* \"#utility.yul\":4093:4512   */\n    tag_42:\n        /* \"#utility.yul\":4259:4263   */\n      0x00\n        /* \"#utility.yul\":4297:4299   */\n      0x20\n        /* \"#utility.yul\":4286:4295   */\n      dup3\n        /* \"#utility.yul\":4282:4300   */\n      add\n        /* \"#utility.yul\":4274:4300   */\n      swap1\n      pop\n        /* \"#utility.yul\":4346:4355   */\n      dup2\n        /* \"#utility.yul\":4340:4344   */\n      dup2\n        /* \"#utility.yul\":4336:4356   */\n      sub\n        /* \"#utility.yul\":4332:4333   */\n      0x00\n        /* \"#utility.yul\":4321:4330   */\n      dup4\n        /* \"#utility.yul\":4317:4334   */\n      add\n        /* \"#utility.yul\":4310:4357   */\n      mstore\n        /* \"#utility.yul\":4374:4505   */\n      tag_110\n        /* \"#utility.yul\":4500:4504   */\n      dup2\n        /* \"#utility.yul\":4374:4505   */\n      tag_73\n      jump\t// in\n    tag_110:\n        /* \"#utility.yul\":4366:4505   */\n      swap1\n      pop\n        /* \"#utility.yul\":4093:4512   */\n      swap2\n      swap1\n      pop\n      jump\t// out\n        /* \"#utility.yul\":4518:4937   */\n    tag_31:\n        /* \"#utility.yul\":4684:4688   */\n      0x00\n        /* \"#utility.yul\":4722:4724   */\n      0x20\n        /* \"#utility.yul\":4711:4720   */\n      dup3\n        /* \"#utility.yul\":4707:4725   */\n      add\n        /* \"#utility.yul\":4699:4725   */\n      swap1\n      pop\n        /* \"#utility.yul\":4771:4780   */\n      dup2\n        /* \"#utility.yul\":4765:4769   */\n      dup2\n        /* \"#utility.yul\":4761:4781   */\n      sub\n        /* \"#utility.yul\":4757:4758   */\n      0x00\n        /* \"#utility.yul\":4746:4755   */\n      dup4\n        /* \"#utility.yul\":4742:4759   */\n      add\n        /* \"#utility.yul\":4735:4782   */\n      mstore\n        /* \"#utility.yul\":4799:4930   */\n      tag_112\n        /* \"#utility.yul\":4925:4929   */\n      dup2\n        /* \"#utility.yul\":4799:4930   */\n      tag_78\n      jump\t// in\n    tag_112:\n        /* \"#utility.yul\":4791:4930   */\n      swap1\n      pop\n        /* \"#utility.yul\":4518:4937   */\n      swap2\n      swap1\n      pop\n      jump\t// out\n        /* \"#utility.yul\":4943:5362   */\n    tag_52:\n        /* \"#utility.yul\":5109:5113   */\n      0x00\n        /* \"#utility.yul\":5147:5149   */\n      0x20\n        /* \"#utility.yul\":5136:5145   */\n      dup3\n        /* \"#utility.yul\":5132:5150   */\n      add\n        /* \"#utility.yul\":5124:5150   */\n      swap1\n      pop\n        /* \"#utility.yul\":5196:5205   */\n      dup2\n        /* \"#utility.yul\":5190:5194   */\n      dup2\n        /* \"#utility.yul\":5186:5206   */\n      sub\n        /* \"#utility.yul\":5182:5183   */\n      0x00\n        /* \"#utility.yul\":5171:5180   */\n      dup4\n        /* \"#utility.yul\":5167:5184   */\n      add\n        /* \"#utility.yul\":5160:5207   */\n      mstore\n        /* \"#utility.yul\":5224:5355   */\n      tag_114\n        /* \"#utility.yul\":5350:5354   */\n      dup2\n        /* \"#utility.yul\":5224:5355   */\n      tag_83\n      jump\t// in\n    tag_114:\n        /* \"#utility.yul\":5216:5355   */\n      swap1\n      pop\n        /* \"#utility.yul\":4943:5362   */\n      swap2\n      swap1\n      pop\n      jump\t// out\n        /* \"#utility.yul\":5368:5787   */\n    tag_34:\n        /* \"#utility.yul\":5534:5538   */\n      0x00\n        /* \"#utility.yul\":5572:5574   */\n      0x20\n        /* \"#utility.yul\":5561:5570   */\n      dup3\n        /* \"#utility.yul\":5557:5575   */\n      add\n        /* \"#utility.yul\":5549:5575   */\n      swap1\n      pop\n        /* \"#utility.yul\":5621:5630   */\n      dup2\n        /* \"#utility.yul\":5615:5619   */\n      dup2\n        /* \"#utility.yul\":5611:5631   */\n      sub\n        /* \"#utility.yul\":5607:5608   */\n      0x00\n        /* \"#utility.yul\":5596:5605   */\n      dup4\n        /* \"#utility.yul\":5592:5609   */\n      add\n        /* \"#utility.yul\":5585:5632   */\n      mstore\n        /* \"#utility.yul\":5649:5780   */\n      tag_116\n        /* \"#utility.yul\":5775:5779   */\n      dup2\n        /* \"#utility.yul\":5649:5780   */\n      tag_94\n      jump\t// in\n    tag_116:\n        /* \"#utility.yul\":5641:5780   */\n      swap1\n      pop\n        /* \"#utility.yul\":5368:5787   */\n      swap2\n      swap1\n      pop\n      jump\t// out\n        /* \"#utility.yul\":5793:6015   */\n    tag_23:\n        /* \"#utility.yul\":5886:5890   */\n      0x00\n        /* \"#utility.yul\":5924:5926   */\n      0x20\n        /* \"#utility.yul\":5913:5922   */\n      dup3\n        /* \"#utility.yul\":5909:5927   */\n      add\n        /* \"#utility.yul\":5901:5927   */\n      swap1\n      pop\n        /* \"#utility.yul\":5937:6008   */\n      tag_118\n        /* \"#utility.yul\":6005:6006   */\n      0x00\n        /* \"#utility.yul\":5994:6003   */\n      dup4\n        /* \"#utility.yul\":5990:6007   */\n      add\n        /* \"#utility.yul\":5981:5987   */\n      dup5\n        /* \"#utility.yul\":5937:6008   */\n      tag_99\n      jump\t// in\n    tag_118:\n        /* \"#utility.yul\":5793:6015   */\n      swap3\n      swap2\n      pop\n      pop\n      jump\t// out\n        /* \"#utility.yul\":6102:6249   */\n    tag_91:\n        /* \"#utility.yul\":6203:6214   */\n      0x00\n        /* \"#utility.yul\":6240:6243   */\n      dup2\n        /* \"#utility.yul\":6225:6243   */\n      swap1\n      pop\n        /* \"#utility.yul\":6102:6249   */\n      swap3\n      swap2\n      pop\n      pop\n      jump\t// out\n        /* \"#utility.yul\":6255:6424   */\n    tag_70:\n        /* \"#utility.yul\":6339:6350   */\n      0x00\n        /* \"#utility.yul\":6373:6379   */\n      dup3\n        /* \"#utility.yul\":6368:6371   */\n      dup3\n        /* \"#utility.yul\":6361:6380   */\n      mstore\n        /* \"#utility.yul\":6413:6417   */\n      0x20\n        /* \"#utility.yul\":6408:6411   */\n      dup3\n        /* \"#utility.yul\":6404:6418   */\n      add\n        /* \"#utility.yul\":6389:6418   */\n      swap1\n      pop\n        /* \"#utility.yul\":6255:6424   */\n      swap3\n      swap2\n      pop\n      pop\n      jump\t// out\n        /* \"#utility.yul\":6430:6735   */\n    tag_44:\n        /* \"#utility.yul\":6470:6473   */\n      0x00\n        /* \"#utility.yul\":6489:6509   */\n      tag_124\n        /* \"#utility.yul\":6507:6508   */\n      dup3\n        /* \"#utility.yul\":6489:6509   */\n      tag_102\n      jump\t// in\n    tag_124:\n        /* \"#utility.yul\":6484:6509   */\n      swap2\n      pop\n        /* \"#utility.yul\":6523:6543   */\n      tag_125\n        /* \"#utility.yul\":6541:6542   */\n      dup4\n        /* \"#utility.yul\":6523:6543   */\n      tag_102\n      jump\t// in\n    tag_125:\n        /* \"#utility.yul\":6518:6543   */\n      swap3\n      pop\n        /* \"#utility.yul\":6677:6678   */\n      dup3\n        /* \"#utility.yul\":6609:6675   */\n      0xffffffffffffffffffffffffffffffffffffffffffffffffffffffffffffffff\n        /* \"#utility.yul\":6605:6679   */\n      sub\n        /* \"#utility.yul\":6602:6603   */\n      dup3\n        /* \"#utility.yul\":6599:6680   */\n      gt\n        /* \"#utility.yul\":6596:6703   */\n      iszero\n      tag_126\n      jumpi\n        /* \"#utility.yul\":6683:6701   */\n      tag_127\n      tag_128\n      jump\t// in\n    tag_127:\n        /* \"#utility.yul\":6596:6703   */\n    tag_126:\n        /* \"#utility.yul\":6727:6728   */\n      dup3\n        /* \"#utility.yul\":6724:6725   */\n      dup3\n        /* \"#utility.yul\":6720:6729   */\n      add\n        /* \"#utility.yul\":6713:6729   */\n      swap1\n      pop\n        /* \"#utility.yul\":6430:6735   */\n      swap3\n      swap2\n      pop\n      pop\n      jump\t// out\n        /* \"#utility.yul\":6741:6845   */\n    tag_66:\n        /* \"#utility.yul\":6786:6793   */\n      0x00\n        /* \"#utility.yul\":6815:6839   */\n      tag_130\n        /* \"#utility.yul\":6833:6838   */\n      dup3\n        /* \"#utility.yul\":6815:6839   */\n      tag_131\n      jump\t// in\n    tag_130:\n        /* \"#utility.yul\":6804:6839   */\n      swap1\n      pop\n        /* \"#utility.yul\":6741:6845   */\n      swap2\n      swap1\n      pop\n      jump\t// out\n        /* \"#utility.yul\":6851:6977   */\n    tag_131:\n        /* \"#utility.yul\":6888:6895   */\n      0x00\n        /* \"#utility.yul\":6928:6970   */\n      0xffffffffffffffffffffffffffffffffffffffff\n        /* \"#utility.yul\":6921:6926   */\n      dup3\n        /* \"#utility.yul\":6917:6971   */\n      and\n        /* \"#utility.yul\":6906:6971   */\n      swap1\n      pop\n        /* \"#utility.yul\":6851:6977   */\n      swap2\n      swap1\n      pop\n      jump\t// out\n        /* \"#utility.yul\":6983:7060   */\n    tag_102:\n        /* \"#utility.yul\":7020:7027   */\n      0x00\n        /* \"#utility.yul\":7049:7054   */\n      dup2\n        /* \"#utility.yul\":7038:7054   */\n      swap1\n      pop\n        /* \"#utility.yul\":6983:7060   */\n      swap2\n      swap1\n      pop\n      jump\t// out\n        /* \"#utility.yul\":7066:7246   */\n    tag_128:\n        /* \"#utility.yul\":7114:7191   */\n      0x4e487b7100000000000000000000000000000000000000000000000000000000\n        /* \"#utility.yul\":7111:7112   */\n      0x00\n        /* \"#utility.yul\":7104:7192   */\n      mstore\n        /* \"#utility.yul\":7211:7215   */\n      0x11\n        /* \"#utility.yul\":7208:7209   */\n      0x04\n        /* \"#utility.yul\":7201:7216   */\n      mstore\n        /* \"#utility.yul\":7235:7239   */\n      0x24\n        /* \"#utility.yul\":7232:7233   */\n      0x00\n        /* \"#utility.yul\":7225:7240   */\n      revert\n        /* \"#utility.yul\":7375:7492   */\n    tag_61:\n        /* \"#utility.yul\":7484:7485   */\n      0x00\n        /* \"#utility.yul\":7481:7482   */\n      dup1\n        /* \"#utility.yul\":7474:7486   */\n      revert\n        /* \"#utility.yul\":7498:7673   */\n    tag_72:\n        /* \"#utility.yul\":7638:7665   */\n      0x53656e646572206d757374206265207468652063616c6c657200000000000000\n        /* \"#utility.yul\":7634:7635   */\n      0x00\n        /* \"#utility.yul\":7626:7632   */\n      dup3\n        /* \"#utility.yul\":7622:7636   */\n      add\n        /* \"#utility.yul\":7615:7666   */\n      mstore\n        /* \"#utility.yul\":7498:7673   */\n      pop\n      jump\t// out\n        /* \"#utility.yul\":7679:7903   */\n    tag_77:\n        /* \"#utility.yul\":7819:7853   */\n      0x436f6e747261637420646f6573206e6f74206861766520656e6f756768206261\n        /* \"#utility.yul\":7815:7816   */\n      0x00\n        /* \"#utility.yul\":7807:7813   */\n      dup3\n        /* \"#utility.yul\":7803:7817   */\n      add\n        /* \"#utility.yul\":7796:7854   */\n      mstore\n        /* \"#utility.yul\":7888:7895   */\n      0x6c616e6365000000000000000000000000000000000000000000000000000000\n        /* \"#utility.yul\":7883:7885   */\n      0x20\n        /* \"#utility.yul\":7875:7881   */\n      dup3\n        /* \"#utility.yul\":7871:7886   */\n      add\n        /* \"#utility.yul\":7864:7896   */\n      mstore\n        /* \"#utility.yul\":7679:7903   */\n      pop\n      jump\t// out\n        /* \"#utility.yul\":7909:8086   */\n    tag_82:\n        /* \"#utility.yul\":8049:8078   */\n      0x53656e646572206d757374206265207468652072656365697665720000000000\n        /* \"#utility.yul\":8045:8046   */\n      0x00\n        /* \"#utility.yul\":8037:8043   */\n      dup3\n        /* \"#utility.yul\":8033:8047   */\n      add\n        /* \"#utility.yul\":8026:8079   */\n      mstore\n        /* \"#utility.yul\":7909:8086   */\n      pop\n      jump\t// out\n        /* \"#utility.yul\":8092:8265   */\n    tag_87:\n        /* \"#utility.yul\":8232:8257   */\n      0x43616c6c20746f207265636569766572206661696c6564000000000000000000\n        /* \"#utility.yul\":8228:8229   */\n      0x00\n        /* \"#utility.yul\":8220:8226   */\n      dup3\n        /* \"#utility.yul\":8216:8230   */\n      add\n        /* \"#utility.yul\":8209:8258   */\n      mstore\n        /* \"#utility.yul\":8092:8265   */\n      pop\n      jump\t// out\n        /* \"#utility.yul\":8271:8385   */\n    tag_93:\n      pop\n      jump\t// out\n        /* \"#utility.yul\":8391:8619   */\n    tag_98:\n        /* \"#utility.yul\":8531:8565   */\n      0x436f6e747261637420646f6573206e6f742068617665206120706f7369746976\n        /* \"#utility.yul\":8527:8528   */\n      0x00\n        /* \"#utility.yul\":8519:8525   */\n      dup3\n        /* \"#utility.yul\":8515:8529   */\n      add\n        /* \"#utility.yul\":8508:8566   */\n      mstore\n        /* \"#utility.yul\":8600:8611   */\n      0x652062616c616e63650000000000000000000000000000000000000000000000\n        /* \"#utility.yul\":8595:8597   */\n      0x20\n        /* \"#utility.yul\":8587:8593   */\n      dup3\n        /* \"#utility.yul\":8583:8598   */\n      add\n        /* \"#utility.yul\":8576:8612   */\n      mstore\n        /* \"#utility.yul\":8391:8619   */\n      pop\n      jump\t// out\n        /* \"#utility.yul\":8625:8747   */\n    tag_57:\n        /* \"#utility.yul\":8698:8722   */\n      tag_145\n        /* \"#utility.yul\":8716:8721   */\n      dup2\n        /* \"#utility.yul\":8698:8722   */\n      tag_102\n      jump\t// in\n    tag_145:\n        /* \"#utility.yul\":8691:8696   */\n      dup2\n        /* \"#utility.yul\":8688:8723   */\n      eq\n        /* \"#utility.yul\":8678:8741   */\n      tag_146\n      jumpi\n        /* \"#utility.yul\":8737:8738   */\n      0x00\n        /* \"#utility.yul\":8734:8735   */\n      dup1\n        /* \"#utility.yul\":8727:8739   */\n      revert\n        /* \"#utility.yul\":8678:8741   */\n    tag_146:\n        /* \"#utility.yul\":8625:8747   */\n      pop\n      jump\t// out\n\n    auxdata: 0xa2646970667358221220fef1d61ae578e6654ff26b0b47efaa8ff189dcadb011752b63364c2ea3ff65ee64736f6c63430008070033\n}\n",
				"bytecode": {
					"linkReferences": {},
					"object": "60806040526040516109f13803806109f1833981810160405281019061002591906100c2565b816000806101000a81548173ffffffffffffffffffffffffffffffffffffffff021916908373ffffffffffffffffffffffffffffffffffffffff16021790555080600160006101000a81548173ffffffffffffffffffffffffffffffffffffffff021916908373ffffffffffffffffffffffffffffffffffffffff1602179055505050610150565b6000815190506100bc81610139565b92915050565b600080604083850312156100d9576100d8610134565b5b60006100e7858286016100ad565b92505060206100f8858286016100ad565b9150509250929050565b600061010d82610114565b9050919050565b600073ffffffffffffffffffffffffffffffffffffffff82169050919050565b600080fd5b61014281610102565b811461014d57600080fd5b50565b6108928061015f6000396000f3fe60806040526004361061004a5760003560e01c806367e404ce1461004f57806373fac6f01461007a578063a52c101e14610091578063b69ef8a8146100ad578063f7260d3e146100d8575b600080fd5b34801561005b57600080fd5b50610064610103565b6040516100719190610571565b60405180910390f35b34801561008657600080fd5b5061008f610127565b005b6100ab60048036038101906100a6919061043f565b61023f565b005b3480156100b957600080fd5b506100c26103fe565b6040516100cf919061062c565b60405180910390f35b3480156100e457600080fd5b506100ed610404565b6040516100fa9190610571565b60405180910390f35b60008054906101000a900473ffffffffffffffffffffffffffffffffffffffff1681565b600160009054906101000a900473ffffffffffffffffffffffffffffffffffffffff1673ffffffffffffffffffffffffffffffffffffffff163373ffffffffffffffffffffffffffffffffffffffff16146101b7576040517f08c379a00000000000000000000000000000000000000000000000000000000081526004016101ae906105cc565b60405180910390fd5b6000600254116101fc576040517f08c379a00000000000000000000000000000000000000000000000000000000081526004016101f39061060c565b60405180910390fd5b7fbcdc7071c1beb6dcf2744621e0b29a2f2432ee20812d9ca5e3d5e8f9308d93a360025460405161022d919061062c565b60405180910390a16000600281905550565b60008054906101000a900473ffffffffffffffffffffffffffffffffffffffff1673ffffffffffffffffffffffffffffffffffffffff163373ffffffffffffffffffffffffffffffffffffffff16146102cd576040517f08c379a00000000000000000000000000000000000000000000000000000000081526004016102c49061058c565b60405180910390fd5b80471015610310576040517f08c379a0000000000000000000000000000000000000000000000000000000008152600401610307906105ac565b60405180910390fd5b80600260008282546103229190610663565b92505081905550600080600160009054906101000a900473ffffffffffffffffffffffffffffffffffffffff1673ffffffffffffffffffffffffffffffffffffffff16836040516103729061055c565b60006040518083038185875af1925050503d80600081146103af576040519150601f19603f3d011682016040523d82523d6000602084013e6103b4565b606091505b5091509150816103f9576040517f08c379a00000000000000000000000000000000000000000000000000000000081526004016103f0906105ec565b60405180910390fd5b505050565b60025481565b600160009054906101000a900473ffffffffffffffffffffffffffffffffffffffff1681565b60008135905061043981610845565b92915050565b60006020828403121561045557610454610724565b5b60006104638482850161042a565b91505092915050565b610475816106b9565b82525050565b6000610488601983610652565b915061049382610729565b602082019050919050565b60006104ab602583610652565b91506104b682610752565b604082019050919050565b60006104ce601b83610652565b91506104d9826107a1565b602082019050919050565b60006104f1601783610652565b91506104fc826107ca565b602082019050919050565b6000610514600083610647565b915061051f826107f3565b600082019050919050565b6000610537602983610652565b9150610542826107f6565b604082019050919050565b610556816106eb565b82525050565b600061056782610507565b9150819050919050565b6000602082019050610586600083018461046c565b92915050565b600060208201905081810360008301526105a58161047b565b9050919050565b600060208201905081810360008301526105c58161049e565b9050919050565b600060208201905081810360008301526105e5816104c1565b9050919050565b60006020820190508181036000830152610605816104e4565b9050919050565b600060208201905081810360008301526106258161052a565b9050919050565b6000602082019050610641600083018461054d565b92915050565b600081905092915050565b600082825260208201905092915050565b600061066e826106eb565b9150610679836106eb565b9250827fffffffffffffffffffffffffffffffffffffffffffffffffffffffffffffffff038211156106ae576106ad6106f5565b5b828201905092915050565b60006106c4826106cb565b9050919050565b600073ffffffffffffffffffffffffffffffffffffffff82169050919050565b6000819050919050565b7f4e487b7100000000000000000000000000000000000000000000000000000000600052601160045260246000fd5b600080fd5b7f53656e646572206d757374206265207468652063616c6c657200000000000000600082015250565b7f436f6e747261637420646f6573206e6f74206861766520656e6f75676820626160008201527f6c616e6365000000000000000000000000000000000000000000000000000000602082015250565b7f53656e646572206d757374206265207468652072656365697665720000000000600082015250565b7f43616c6c20746f207265636569766572206661696c6564000000000000000000600082015250565b50565b7f436f6e747261637420646f6573206e6f742068617665206120706f736974697660008201527f652062616c616e63650000000000000000000000000000000000000000000000602082015250565b61084e816106eb565b811461085957600080fd5b5056fea2646970667358221220fef1d61ae578e6654ff26b0b47efaa8ff189dcadb011752b63364c2ea3ff65ee64736f6c63430008070033",
					"opcodes": "PUSH1 0x80 PUSH1 0x40 MSTORE PUSH1 0x40 MLOAD PUSH2 0x9F1 CODESIZE SUB DUP1 PUSH2 0x9F1 DUP4 CODECOPY DUP2 DUP2 ADD PUSH1 0x40 MSTORE DUP2 ADD SWAP1 PUSH2 0x25 SWAP2 SWAP1 PUSH2 0xC2 JUMP JUMPDEST DUP2 PUSH1 0x0 DUP1 PUSH2 0x100 EXP DUP2 SLOAD DUP2 PUSH20 0xFFFFFFFFFFFFFFFFFFFFFFFFFFFFFFFFFFFFFFFF MUL NOT AND SWAP1 DUP4 PUSH20 0xFFFFFFFFFFFFFFFFFFFFFFFFFFFFFFFFFFFFFFFF AND MUL OR SWAP1 SSTORE POP DUP1 PUSH1 0x1 PUSH1 0x0 PUSH2 0x100 EXP DUP2 SLOAD DUP2 PUSH20 0xFFFFFFFFFFFFFFFFFFFFFFFFFFFFFFFFFFFFFFFF MUL NOT AND SWAP1 DUP4 PUSH20 0xFFFFFFFFFFFFFFFFFFFFFFFFFFFFFFFFFFFFFFFF AND MUL OR SWAP1 SSTORE POP POP POP PUSH2 0x150 JUMP JUMPDEST PUSH1 0x0 DUP2 MLOAD SWAP1 POP PUSH2 0xBC DUP2 PUSH2 0x139 JUMP JUMPDEST SWAP3 SWAP2 POP POP JUMP JUMPDEST PUSH1 0x0 DUP1 PUSH1 0x40 DUP4 DUP6 SUB SLT ISZERO PUSH2 0xD9 JUMPI PUSH2 0xD8 PUSH2 0x134 JUMP JUMPDEST JUMPDEST PUSH1 0x0 PUSH2 0xE7 DUP6 DUP3 DUP7 ADD PUSH2 0xAD JUMP JUMPDEST SWAP3 POP POP PUSH1 0x20 PUSH2 0xF8 DUP6 DUP3 DUP7 ADD PUSH2 0xAD JUMP JUMPDEST SWAP2 POP POP SWAP3 POP SWAP3 SWAP1 POP JUMP JUMPDEST PUSH1 0x0 PUSH2 0x10D DUP3 PUSH2 0x114 JUMP JUMPDEST SWAP1 POP SWAP2 SWAP1 POP JUMP JUMPDEST PUSH1 0x0 PUSH20 0xFFFFFFFFFFFFFFFFFFFFFFFFFFFFFFFFFFFFFFFF DUP3 AND SWAP1 POP SWAP2 SWAP1 POP JUMP JUMPDEST PUSH1 0x0 DUP1 REVERT JUMPDEST PUSH2 0x142 DUP2 PUSH2 0x102 JUMP JUMPDEST DUP2 EQ PUSH2 0x14D JUMPI PUSH1 0x0 DUP1 REVERT JUMPDEST POP JUMP JUMPDEST PUSH2 0x892 DUP1 PUSH2 0x15F PUSH1 0x0 CODECOPY PUSH1 0x0 RETURN INVALID PUSH1 0x80 PUSH1 0x40 MSTORE PUSH1 0x4 CALLDATASIZE LT PUSH2 0x4A JUMPI PUSH1 0x0 CALLDATALOAD PUSH1 0xE0 SHR DUP1 PUSH4 0x67E404CE EQ PUSH2 0x4F JUMPI DUP1 PUSH4 0x73FAC6F0 EQ PUSH2 0x7A JUMPI DUP1 PUSH4 0xA52C101E EQ PUSH2 0x91 JUMPI DUP1 PUSH4 0xB69EF8A8 EQ PUSH2 0xAD JUMPI DUP1 PUSH4 0xF7260D3E EQ PUSH2 0xD8 JUMPI JUMPDEST PUSH1 0x0 DUP1 REVERT JUMPDEST CALLVALUE DUP1 ISZERO PUSH2 0x5B JUMPI PUSH1 0x0 DUP1 REVERT JUMPDEST POP PUSH2 0x64 PUSH2 0x103 JUMP JUMPDEST PUSH1 0x40 MLOAD PUSH2 0x71 SWAP2 SWAP1 PUSH2 0x571 JUMP JUMPDEST PUSH1 0x40 MLOAD DUP1 SWAP2 SUB SWAP1 RETURN JUMPDEST CALLVALUE DUP1 ISZERO PUSH2 0x86 JUMPI PUSH1 0x0 DUP1 REVERT JUMPDEST POP PUSH2 0x8F PUSH2 0x127 JUMP JUMPDEST STOP JUMPDEST PUSH2 0xAB PUSH1 0x4 DUP1 CALLDATASIZE SUB DUP2 ADD SWAP1 PUSH2 0xA6 SWAP2 SWAP1 PUSH2 0x43F JUMP JUMPDEST PUSH2 0x23F JUMP JUMPDEST STOP JUMPDEST CALLVALUE DUP1 ISZERO PUSH2 0xB9 JUMPI PUSH1 0x0 DUP1 REVERT JUMPDEST POP PUSH2 0xC2 PUSH2 0x3FE JUMP JUMPDEST PUSH1 0x40 MLOAD PUSH2 0xCF SWAP2 SWAP1 PUSH2 0x62C JUMP JUMPDEST PUSH1 0x40 MLOAD DUP1 SWAP2 SUB SWAP1 RETURN JUMPDEST CALLVALUE DUP1 ISZERO PUSH2 0xE4 JUMPI PUSH1 0x0 DUP1 REVERT JUMPDEST POP PUSH2 0xED PUSH2 0x404 JUMP JUMPDEST PUSH1 0x40 MLOAD PUSH2 0xFA SWAP2 SWAP1 PUSH2 0x571 JUMP JUMPDEST PUSH1 0x40 MLOAD DUP1 SWAP2 SUB SWAP1 RETURN JUMPDEST PUSH1 0x0 DUP1 SLOAD SWAP1 PUSH2 0x100 EXP SWAP1 DIV PUSH20 0xFFFFFFFFFFFFFFFFFFFFFFFFFFFFFFFFFFFFFFFF AND DUP2 JUMP JUMPDEST PUSH1 0x1 PUSH1 0x0 SWAP1 SLOAD SWAP1 PUSH2 0x100 EXP SWAP1 DIV PUSH20 0xFFFFFFFFFFFFFFFFFFFFFFFFFFFFFFFFFFFFFFFF AND PUSH20 0xFFFFFFFFFFFFFFFFFFFFFFFFFFFFFFFFFFFFFFFF AND CALLER PUSH20 0xFFFFFFFFFFFFFFFFFFFFFFFFFFFFFFFFFFFFFFFF AND EQ PUSH2 0x1B7 JUMPI PUSH1 0x40 MLOAD PUSH32 0x8C379A000000000000000000000000000000000000000000000000000000000 DUP2 MSTORE PUSH1 0x4 ADD PUSH2 0x1AE SWAP1 PUSH2 0x5CC JUMP JUMPDEST PUSH1 0x40 MLOAD DUP1 SWAP2 SUB SWAP1 REVERT JUMPDEST PUSH1 0x0 PUSH1 0x2 SLOAD GT PUSH2 0x1FC JUMPI PUSH1 0x40 MLOAD PUSH32 0x8C379A000000000000000000000000000000000000000000000000000000000 DUP2 MSTORE PUSH1 0x4 ADD PUSH2 0x1F3 SWAP1 PUSH2 0x60C JUMP JUMPDEST PUSH1 0x40 MLOAD DUP1 SWAP2 SUB SWAP1 REVERT JUMPDEST PUSH32 0xBCDC7071C1BEB6DCF2744621E0B29A2F2432EE20812D9CA5E3D5E8F9308D93A3 PUSH1 0x2 SLOAD PUSH1 0x40 MLOAD PUSH2 0x22D SWAP2 SWAP1 PUSH2 0x62C JUMP JUMPDEST PUSH1 0x40 MLOAD DUP1 SWAP2 SUB SWAP1 LOG1 PUSH1 0x0 PUSH1 0x2 DUP2 SWAP1 SSTORE POP JUMP JUMPDEST PUSH1 0x0 DUP1 SLOAD SWAP1 PUSH2 0x100 EXP SWAP1 DIV PUSH20 0xFFFFFFFFFFFFFFFFFFFFFFFFFFFFFFFFFFFFFFFF AND PUSH20 0xFFFFFFFFFFFFFFFFFFFFFFFFFFFFFFFFFFFFFFFF AND CALLER PUSH20 0xFFFFFFFFFFFFFFFFFFFFFFFFFFFFFFFFFFFFFFFF AND EQ PUSH2 0x2CD JUMPI PUSH1 0x40 MLOAD PUSH32 0x8C379A000000000000000000000000000000000000000000000000000000000 DUP2 MSTORE PUSH1 0x4 ADD PUSH2 0x2C4 SWAP1 PUSH2 0x58C JUMP JUMPDEST PUSH1 0x40 MLOAD DUP1 SWAP2 SUB SWAP1 REVERT JUMPDEST DUP1 SELFBALANCE LT ISZERO PUSH2 0x310 JUMPI PUSH1 0x40 MLOAD PUSH32 0x8C379A000000000000000000000000000000000000000000000000000000000 DUP2 MSTORE PUSH1 0x4 ADD PUSH2 0x307 SWAP1 PUSH2 0x5AC JUMP JUMPDEST PUSH1 0x40 MLOAD DUP1 SWAP2 SUB SWAP1 REVERT JUMPDEST DUP1 PUSH1 0x2 PUSH1 0x0 DUP3 DUP3 SLOAD PUSH2 0x322 SWAP2 SWAP1 PUSH2 0x663 JUMP JUMPDEST SWAP3 POP POP DUP2 SWAP1 SSTORE POP PUSH1 0x0 DUP1 PUSH1 0x1 PUSH1 0x0 SWAP1 SLOAD SWAP1 PUSH2 0x100 EXP SWAP1 DIV PUSH20 0xFFFFFFFFFFFFFFFFFFFFFFFFFFFFFFFFFFFFFFFF AND PUSH20 0xFFFFFFFFFFFFFFFFFFFFFFFFFFFFFFFFFFFFFFFF AND DUP4 PUSH1 0x40 MLOAD PUSH2 0x372 SWAP1 PUSH2 0x55C JUMP JUMPDEST PUSH1 0x0 PUSH1 0x40 MLOAD DUP1 DUP4 SUB DUP2 DUP6 DUP8 GAS CALL SWAP3 POP POP POP RETURNDATASIZE DUP1 PUSH1 0x0 DUP2 EQ PUSH2 0x3AF JUMPI PUSH1 0x40 MLOAD SWAP2 POP PUSH1 0x1F NOT PUSH1 0x3F RETURNDATASIZE ADD AND DUP3 ADD PUSH1 0x40 MSTORE RETURNDATASIZE DUP3 MSTORE RETURNDATASIZE PUSH1 0x0 PUSH1 0x20 DUP5 ADD RETURNDATACOPY PUSH2 0x3B4 JUMP JUMPDEST PUSH1 0x60 SWAP2 POP JUMPDEST POP SWAP2 POP SWAP2 POP DUP2 PUSH2 0x3F9 JUMPI PUSH1 0x40 MLOAD PUSH32 0x8C379A000000000000000000000000000000000000000000000000000000000 DUP2 MSTORE PUSH1 0x4 ADD PUSH2 0x3F0 SWAP1 PUSH2 0x5EC JUMP JUMPDEST PUSH1 0x40 MLOAD DUP1 SWAP2 SUB SWAP1 REVERT JUMPDEST POP POP POP JUMP JUMPDEST PUSH1 0x2 SLOAD DUP2 JUMP JUMPDEST PUSH1 0x1 PUSH1 0x0 SWAP1 SLOAD SWAP1 PUSH2 0x100 EXP SWAP1 DIV PUSH20 0xFFFFFFFFFFFFFFFFFFFFFFFFFFFFFFFFFFFFFFFF AND DUP2 JUMP JUMPDEST PUSH1 0x0 DUP2 CALLDATALOAD SWAP1 POP PUSH2 0x439 DUP2 PUSH2 0x845 JUMP JUMPDEST SWAP3 SWAP2 POP POP JUMP JUMPDEST PUSH1 0x0 PUSH1 0x20 DUP3 DUP5 SUB SLT ISZERO PUSH2 0x455 JUMPI PUSH2 0x454 PUSH2 0x724 JUMP JUMPDEST JUMPDEST PUSH1 0x0 PUSH2 0x463 DUP5 DUP3 DUP6 ADD PUSH2 0x42A JUMP JUMPDEST SWAP2 POP POP SWAP3 SWAP2 POP POP JUMP JUMPDEST PUSH2 0x475 DUP2 PUSH2 0x6B9 JUMP JUMPDEST DUP3 MSTORE POP POP JUMP JUMPDEST PUSH1 0x0 PUSH2 0x488 PUSH1 0x19 DUP4 PUSH2 0x652 JUMP JUMPDEST SWAP2 POP PUSH2 0x493 DUP3 PUSH2 0x729 JUMP JUMPDEST PUSH1 0x20 DUP3 ADD SWAP1 POP SWAP2 SWAP1 POP JUMP JUMPDEST PUSH1 0x0 PUSH2 0x4AB PUSH1 0x25 DUP4 PUSH2 0x652 JUMP JUMPDEST SWAP2 POP PUSH2 0x4B6 DUP3 PUSH2 0x752 JUMP JUMPDEST PUSH1 0x40 DUP3 ADD SWAP1 POP SWAP2 SWAP1 POP JUMP JUMPDEST PUSH1 0x0 PUSH2 0x4CE PUSH1 0x1B DUP4 PUSH2 0x652 JUMP JUMPDEST SWAP2 POP PUSH2 0x4D9 DUP3 PUSH2 0x7A1 JUMP JUMPDEST PUSH1 0x20 DUP3 ADD SWAP1 POP SWAP2 SWAP1 POP JUMP JUMPDEST PUSH1 0x0 PUSH2 0x4F1 PUSH1 0x17 DUP4 PUSH2 0x652 JUMP JUMPDEST SWAP2 POP PUSH2 0x4FC DUP3 PUSH2 0x7CA JUMP JUMPDEST PUSH1 0x20 DUP3 ADD SWAP1 POP SWAP2 SWAP1 POP JUMP JUMPDEST PUSH1 0x0 PUSH2 0x514 PUSH1 0x0 DUP4 PUSH2 0x647 JUMP JUMPDEST SWAP2 POP PUSH2 0x51F DUP3 PUSH2 0x7F3 JUMP JUMPDEST PUSH1 0x0 DUP3 ADD SWAP1 POP SWAP2 SWAP1 POP JUMP JUMPDEST PUSH1 0x0 PUSH2 0x537 PUSH1 0x29 DUP4 PUSH2 0x652 JUMP JUMPDEST SWAP2 POP PUSH2 0x542 DUP3 PUSH2 0x7F6 JUMP JUMPDEST PUSH1 0x40 DUP3 ADD SWAP1 POP SWAP2 SWAP1 POP JUMP JUMPDEST PUSH2 0x556 DUP2 PUSH2 0x6EB JUMP JUMPDEST DUP3 MSTORE POP POP JUMP JUMPDEST PUSH1 0x0 PUSH2 0x567 DUP3 PUSH2 0x507 JUMP JUMPDEST SWAP2 POP DUP2 SWAP1 POP SWAP2 SWAP1 POP JUMP JUMPDEST PUSH1 0x0 PUSH1 0x20 DUP3 ADD SWAP1 POP PUSH2 0x586 PUSH1 0x0 DUP4 ADD DUP5 PUSH2 0x46C JUMP JUMPDEST SWAP3 SWAP2 POP POP JUMP JUMPDEST PUSH1 0x0 PUSH1 0x20 DUP3 ADD SWAP1 POP DUP2 DUP2 SUB PUSH1 0x0 DUP4 ADD MSTORE PUSH2 0x5A5 DUP2 PUSH2 0x47B JUMP JUMPDEST SWAP1 POP SWAP2 SWAP1 POP JUMP JUMPDEST PUSH1 0x0 PUSH1 0x20 DUP3 ADD SWAP1 POP DUP2 DUP2 SUB PUSH1 0x0 DUP4 ADD MSTORE PUSH2 0x5C5 DUP2 PUSH2 0x49E JUMP JUMPDEST SWAP1 POP SWAP2 SWAP1 POP JUMP JUMPDEST PUSH1 0x0 PUSH1 0x20 DUP3 ADD SWAP1 POP DUP2 DUP2 SUB PUSH1 0x0 DUP4 ADD MSTORE PUSH2 0x5E5 DUP2 PUSH2 0x4C1 JUMP JUMPDEST SWAP1 POP SWAP2 SWAP1 POP JUMP JUMPDEST PUSH1 0x0 PUSH1 0x20 DUP3 ADD SWAP1 POP DUP2 DUP2 SUB PUSH1 0x0 DUP4 ADD MSTORE PUSH2 0x605 DUP2 PUSH2 0x4E4 JUMP JUMPDEST SWAP1 POP SWAP2 SWAP1 POP JUMP JUMPDEST PUSH1 0x0 PUSH1 0x20 DUP3 ADD SWAP1 POP DUP2 DUP2 SUB PUSH1 0x0 DUP4 ADD MSTORE PUSH2 0x625 DUP2 PUSH2 0x52A JUMP JUMPDEST SWAP1 POP SWAP2 SWAP1 POP JUMP JUMPDEST PUSH1 0x0 PUSH1 0x20 DUP3 ADD SWAP1 POP PUSH2 0x641 PUSH1 0x0 DUP4 ADD DUP5 PUSH2 0x54D JUMP JUMPDEST SWAP3 SWAP2 POP POP JUMP JUMPDEST PUSH1 0x0 DUP2 SWAP1 POP SWAP3 SWAP2 POP POP JUMP JUMPDEST PUSH1 0x0 DUP3 DUP3 MSTORE PUSH1 0x20 DUP3 ADD SWAP1 POP SWAP3 SWAP2 POP POP JUMP JUMPDEST PUSH1 0x0 PUSH2 0x66E DUP3 PUSH2 0x6EB JUMP JUMPDEST SWAP2 POP PUSH2 0x679 DUP4 PUSH2 0x6EB JUMP JUMPDEST SWAP3 POP DUP3 PUSH32 0xFFFFFFFFFFFFFFFFFFFFFFFFFFFFFFFFFFFFFFFFFFFFFFFFFFFFFFFFFFFFFFFF SUB DUP3 GT ISZERO PUSH2 0x6AE JUMPI PUSH2 0x6AD PUSH2 0x6F5 JUMP JUMPDEST JUMPDEST DUP3 DUP3 ADD SWAP1 POP SWAP3 SWAP2 POP POP JUMP JUMPDEST PUSH1 0x0 PUSH2 0x6C4 DUP3 PUSH2 0x6CB JUMP JUMPDEST SWAP1 POP SWAP2 SWAP1 POP JUMP JUMPDEST PUSH1 0x0 PUSH20 0xFFFFFFFFFFFFFFFFFFFFFFFFFFFFFFFFFFFFFFFF DUP3 AND SWAP1 POP SWAP2 SWAP1 POP JUMP JUMPDEST PUSH1 0x0 DUP2 SWAP1 POP SWAP2 SWAP1 POP JUMP JUMPDEST PUSH32 0x4E487B7100000000000000000000000000000000000000000000000000000000 PUSH1 0x0 MSTORE PUSH1 0x11 PUSH1 0x4 MSTORE PUSH1 0x24 PUSH1 0x0 REVERT JUMPDEST PUSH1 0x0 DUP1 REVERT JUMPDEST PUSH32 0x53656E646572206D757374206265207468652063616C6C657200000000000000 PUSH1 0x0 DUP3 ADD MSTORE POP JUMP JUMPDEST PUSH32 0x436F6E747261637420646F6573206E6F74206861766520656E6F756768206261 PUSH1 0x0 DUP3 ADD MSTORE PUSH32 0x6C616E6365000000000000000000000000000000000000000000000000000000 PUSH1 0x20 DUP3 ADD MSTORE POP JUMP JUMPDEST PUSH32 0x53656E646572206D757374206265207468652072656365697665720000000000 PUSH1 0x0 DUP3 ADD MSTORE POP JUMP JUMPDEST PUSH32 0x43616C6C20746F207265636569766572206661696C6564000000000000000000 PUSH1 0x0 DUP3 ADD MSTORE POP JUMP JUMPDEST POP JUMP JUMPDEST PUSH32 0x436F6E747261637420646F6573206E6F742068617665206120706F7369746976 PUSH1 0x0 DUP3 ADD MSTORE PUSH32 0x652062616C616E63650000000000000000000000000000000000000000000000 PUSH1 0x20 DUP3 ADD MSTORE POP JUMP JUMPDEST PUSH2 0x84E DUP2 PUSH2 0x6EB JUMP JUMPDEST DUP2 EQ PUSH2 0x859 JUMPI PUSH1 0x0 DUP1 REVERT JUMPDEST POP JUMP INVALID LOG2 PUSH5 0x6970667358 0x22 SLT KECCAK256 INVALID CALL 0xD6 BYTE 0xE5 PUSH25 0xE6654FF26B0B47EFAA8FF189DCADB011752B63364C2EA3FF65 0xEE PUSH5 0x736F6C6343 STOP ADDMOD SMOD STOP CALLER "
				},
				"gasEstimates": {
					"creation": {
						"codeDepositCost": "438800",
						"executionCost": "infinite",
						"totalCost": "infinite"
					},
					"external": {
						"balance()": "2473",
						"confirmReceived()": "12742",
						"receiver()": "2580",
						"send(uint256)": "infinite",
						"sender()": "2489"
					}
				},
				"methodIdentifiers": {
					"balance()": "b69ef8a8",
					"confirmReceived()": "73fac6f0",
					"receiver()": "f7260d3e",
					"send(uint256)": "a52c101e",
					"sender()": "67e404ce"
				}
			},
			"storageLayout": {
				"storage": [
					{
						"astId": 3,
						"contract": "solution/UniDirectionalPayment.sol:UniDirectionalPayment",
						"label": "sender",
						"offset": 0,
						"slot": "0",
						"type": "t_address_payable"
					},
					{
						"astId": 5,
						"contract": "solution/UniDirectionalPayment.sol:UniDirectionalPayment",
						"label": "receiver",
						"offset": 0,
						"slot": "1",
						"type": "t_address_payable"
					},
					{
						"astId": 7,
						"contract": "solution/UniDirectionalPayment.sol:UniDirectionalPayment",
						"label": "balance",
						"offset": 0,
						"slot": "2",
						"type": "t_uint256"
					}
				],
				"types": {
					"t_address_payable": {
						"encoding": "inplace",
						"label": "address payable",
						"numberOfBytes": "20"
					},
					"t_uint256": {
						"encoding": "inplace",
						"label": "uint256",
						"numberOfBytes": "32"
					}
				}
			},
			"userdoc": {
				"kind": "user",
				"methods": {},
				"version": 1
			}
		}
	}
}